S0200000484143534D5F41546D65676133323850425F4472697665722E7372656310
S11300000C945A000C9477000C9477000C947700AD
S11300100C9477000C9477000C9477000C94770080
S11300200C9477000C9477000C9477000C94770070
S11300300C9477000C9477000C9477000C94770060
S11300400C9477000C9477000C9477000C94770050
S11300500C9477000C94D1000C9477000C947700E6
S11300600C9477000C9477000C9477000C94770030
S11300700C9477000C9477000C9477000C94770020
S11300800C9477000C9477000C9477000C94770010
S11300900C9477000C9477000C9477000C94770000
S11300A00C9477000C9477000C9477000C947700F0
S11300B00C94770011241FBECFEFD8E0DEBFCDBF74
S11300C011E0A0E0B1E0E2EBF4E002C005900D9293
S11300D0A030B107D9F721E0A0E0B1E001C01D9242
S11300E0AD30B207E1F70E94C9000C9457020C949A
S11300F00000ECE7F0E09081907F9083813051F034
S113010028F0823061F0833079F013C0ECE7F0E03E
S113011080818083ECE7F0E0808188608083ECE775
S1130120F0E0808184608083ECE7F0E080818C6083
S11301308083ECE7F0E08081816080830895CF9331
S1130140DF9387B187B9CAE7D0E08881886A88835A
S1130150888187608883EBE7F0E080818360808317
S113016080E00E947900ECE7F0E080818064808385
S1130170888180648883DF91CF9108959093C5002E
S11301808093C40088E18093C1008EE08093C20014
S113019008950E949F0087E690E00E94BE00789434
S11301A0FFCF1F920F920FB60F9211242F933F93FC
S11301B04F935F936F937F938F939F93AF93BF936B
S11301C0CF93EF93FF93C0910401C13079F028F0ED
S11301D0C230A9F0C330E1F024C08091780090913E
S11301E07900909306018093050123C080917800E3
S11301F09091790090930801809307011AC080912F
S113020078009091790090930A018093090111C0BC
S1130210809178009091790090930C0180930B0168
S113022008C08091780090917900909306018093A2
S11302300501EC2FF0E0EE0FFF1FEB5FFE4F608136
S1130240718180E090E00E945C0120E030E040E8B1
S11302505AE30E94990120E030E048EC52E40E9405
S113026099016093000170930101809302019093BE
S11302700301C33018F01092040103C0CF5FC09390
S11302800401809104010E947900EAE7F0E0808192
S113029080648083FF91EF91CF91BF91AF919F9143
S11302A08F917F916F915F914F913F912F910F901B
S11302B00FBE0F901F901895E89409C097FB3EF469
S11302C090958095709561957F4F8F4F9F4F99239F
S11302D0A9F0F92F96E9BB279395F695879577951D
S11302E06795B795F111F8CFFAF4BB0F11F460FFDD
S11302F01BC06F5F7F4F8F4F9F4F16C0882311F035
S113030096E911C0772321F09EE8872F762F05C048
S1130310662371F096E8862F70E060E02AF09A95E3
S1130320660F771F881FDAF7880F9695879597F9D8
S113033008950E94AC010C941D020E940F0238F033
S11303400E94160220F0952311F00C9406020C94DE
S11303500C0211240C9451020E942E0270F3959FFA
S1130360C1F3950F50E0551F629FF001729FBB27A8
S1130370F00DB11D639FAA27F00DB11DAA1F649F44
S11303806627B00DA11D661F829F2227B00DA11DF7
S1130390621F739FB00DA11D621F839FA00D611D7D
S11303A0221F749F3327A00D611D231F849F600D9E
S11303B0211D822F762F6A2F11249F5750409AF0C7
S11303C0F1F088234AF0EE0FFF1FBB1F661F771F53
S11303D0881F91505040A9F79E3F510580F00C941E
S11303E006020C9451025F3FE4F3983ED4F38695E1
S11303F077956795B795F795E7959F5FC1F7FE2BBE
S1130400880F911D9695879597F9089597F99F6799
S113041080E870E060E008959FEF80EC0895002488
S11304200A941616170618060906089500240A9455
S113043012161306140605060895092E0394000CDB
S113044011F4882352F0BB0F40F4BF2B11F460FF6A
S113045004C06F5F7F4F8F4F9F4F089557FD905893
S1130460440F551F59F05F3F71F04795880F97FB74
S1130470991F61F09F3F79F087950895121613062E
S11304801406551FF2CF4695F1DF08C0161617065D
S11304901806991FF1CF8695710561050894089592
S11304A0E894BB2766277727CB0197F90895F8943A
S10504B0FFCF78
S9030000FC
